:030000000210E704
:0C10E700787FE4F6D8FD75817502112EAB
:0F15F000D282D2810000C2820000C2810000229C
:0B15FF00C2820000D2810000D28222D4
:1015DF00D2820000D2810000C2820000C2810000CE
:0115EF0022D9
:10141E00C20A300903430701E4FDFCEF30E703D3B2
:10142E008001C39282D281EF25E0FFC2810DBD0003
:10143E00010CED64084C70E32082FDD2810000C2E5
:05144E00810000A282F4
:011453002276
:10145400C200E4FDFCEF30E703D38001C39282D2E3
:1014640081EF25E0FFC2810DBD00010CED64084C45
:0F14740070E32082FDD2810000C2810000A282BD
:011483002246
:1014E400E4FFD282FDFCD281EF25E0FFA282E43347
:1014F4004207C281000DBD00010CED64084C70E68A
:0C150400A20092820000D2810000C2818F
:0115100022B8
:10123E008F60E56054F0FFE5A0540F4FF5A0C2A3F8
:10124E00D2A27F017E007D007C00121376C2A27FA7
:10125E00027E007D007C00121376E560C454F0FF20
:10126E00E5A0540F4FF5A0D2A27F017E007D007C39
:10127E0000121376C2A27F057E007D007C00021351
:01128E0076E9
:10128F008F65E56554F0FFE5A0540F4FF5A0D2A38D
:10129F00D2A27F017E007D007C00121376C2A27F56
:1012AF00027E007D007C00121376E565C454F0FFCA
:1012BF00E5A0540F4FF5A0D2A27F017E007D007CE8
:1012CF0000121376C2A27F057E007D007C00021300
:0112DF007698
:061484008B608A618962A1
:10148A00E4F563F564AB60AA61A962856482856349
:10149A0083120A97FFFD3395E04D600D12128F05F6
:0914AA0064E56470E0056380DC78
:0114B3002216
:101511008D5C8B5D8A5E895FEF3395E04F7008E5E6
:101521005C543F44808006E55C543F44C0FF121286
:0A1531003EAB5DAA5EA95F021484C0
:10153B007F147E007D007C001213767F0212123E18
:10154B007F2812123E7F0C12123E7F0612123E7F34
:09155B000112123E7F8002123ED3
:100CF700444154453A0054494D453A000D20494E68
:100D0700464F3A202D3E205365742044617461009C
:100D17002D2D2D000D20494E505554203A20536556
:100D2700742059656172203D20002530346C7500B0
:100D37000D20494E464F3A202D3E20536574204DD5
:100D47006F6E7468000D20494E5055543A20536514
:100D570074204D6F6E7468203D2000253032750079
:100D67000D20494E464F3A202D3E205365742044AE
:100D7700617465000D20494E5055543A20536574EF
:100D87002044617465203D20000D20494E464F3AAE
:100D9700202D3E2053657420446179000D20436166
:100DA7006C633A20446179203D20000D20494E466E
:100DB7004F3A202D3E2053657420486F7572000D01
:100DC70020494E505554203A20486F7572203D20D7
:100DD700000D20494E464F3A202D3E205365742082
:100DE7004D696E757465000D20494E505554203A73
:100DF700204D696E757465203D20000D20494E46D3
:100E07004F3A202D3E20536574205365636F6E64FF
:100E170073000D20494E505554203A205365636F97
:100E27006E6473203D20000D20494E464F3A202D19
:100E37003E20446563696D616C20746F20424344B2
:100E470020436F6E76000D20494E464F3A202D3EC7
:100E57002052544320436F6E66000D20494E464F83
:100E67003A202D3E205265616420525443002020D1
:100E7700002F25303275002F2530346C7500202067
:100E8700202000200053554E004D4F4E005455452D
:100E970000574544005448550046524900534154B1
:100EA700003A25303275004552523A205374725F2A
:060EB70046696C6C0D00A1
:1013E500023C0015023E000502460000023A0000DC
:1013F500024B0000024400010440000000171822BF
:1014050000000003000200050000000300050001C4
:081415000004000600020004BF
:100EBD00C297D291D292D2931215AF12153B7BFFEE
:100ECD007A0C79F7E4FDFF1215117BFF7A0C79FD91
:100EDD00E4FD7F011215114349014349025349FBBA
:100EED005349F7E54930E14E20914B754D00754E54
:100EFD00C812136E20910DE54E154E7002154D144E
:100F0D00454D70F05349FD4349044349087F0C1288
:100F1D00123E7BFF7A0D79031200035349FEE5491A
:100F2D00540F8548484420F5497BFF7A0D79177D8C
:100F3D0011E4FF121511E54954011460080470A362
:100F4D00120026809E1215F07FD0121454E4FF1269
:100F5D0014541215F07FD1121454C2001214E47EF1
:100F6D000012158B8E4B8F4CC2001214E47E0012B2
:100F7D00158B8E3A8F3BC2001214E47E0012158B36
:100F8D008E468F47C2001214E47E0012158B8E44DC
:100F9D008F45C2001214E47E0012158B8E3C8F3DDE
:100FAD00C2001214E47E0012158B8E3E8F3FD200CC
:100FBD001214E47E0012158BE48F438E42F541F539
:100FCD00401215FFE4FF1208347F01121370020E58
:010FDD00F023
:10002600E548C4F854F0C8E549C4540F48540FB421
:10003600090040030204D7900044F82828730201FF
:100046006F02010102005F0202450202AC020321B7
:1000560002039602040B020467E54930E23C209253
:100066003912136E3092FDE5432401F543E435421F
:10007600F542E43541F541E43540F540E47F29FE9B
:10008600FDFCAB43AA42A941A840C3120C1B400A7F
:10009600E4754317F542F541F540E54930E357204D
:1000A600935412136E3093FD7BFF7A0D791B120069
:1000B60003755FFF75600D756131E54324D0F56505
:1000C600E5423407F564E43541F563E43540F5620D
:1000D6007B007A00794F1205347B007A00794F1243
:1000E60000037BFF7A0D7937120003E549540F852B
:1000F60048484410F5497F03020408E54930E220E8
:1001060020921D12136E3092FD053FE53F700205E9
:100116003EC3940DE53E94004006753E00753F01D2
:10012600E54930E33F20933C12136E3093FD7BFF8D
:100136007A0D794C120003755FFF75600D7561626B
:10014600853E62853F637B007A00794F1205347BDA
:10015600007A00794F1200037BFF7A0D796712004F
:100166000353490F7F02020408E54920E203020116
:10017600F420927A12136E3092FDE5435403FF0584
:100186003DE53D7002053CE53F6402453E7023EFC8
:10019600FD3395E0FC4D600BC3E53D941DE53C94B5
:1001A600005045ED4C700BC3E53D941EE53C9400B4
:1001B6005036C3E53D941FE53C94004020E53F647E
:1001C60004453E6023E53F6406453E601BE53F640B
:1001D60009453E6013E53F640B453E600BC3E53DB4
:1001E6009420E53C94004006753C00753D01E549C8
:1001F60030E34720934412136E3093FD7BFF7A0D54
:10020600797B120003755FFF75600D756162853C31
:1002160062853D637B007A00794F1205347B007A54
:1002260000794F1200037BFF7A0D7990120003E5E7
:1002360049540F8548484430F5497F010204088532
:10024600435C85425B85415A854059AD3FAC3EAF24
:100256003DAE3C120FDE8E448F450545E5457002E6
:1002660005447F071208347BFF7A0D79A312000339
:10027600755FFF75600D7561628544628545637BB8
:10028600007A00794F1205347B007A00794F12000C
:10029600037BFF7A0D79B2120003E549540F8548B6
:1002A600484440F54922E54930E21F20921C1213CA
:1002B6006E3092FD0547E54770020546C39418E582
:1002C6004694004005E4F546F547E54930E3472006
:1002D600934412136E3093FD7BFF7A0D79C612009C
:1002E60003755FFF75600D756162854662854763BC
:1002F6007B007A00794F1205347B007A00794F1221
:1003060000037BFF7A0D79D8120003E549540F8567
:1003160048484450F5497F04020408E54930E21F85
:1003260020921C12136E3092FD053BE53B700205D0
:100336003AC3943CE53A94004005E4F53AF53BE5CA
:100346004930E34720934412136E3093FD7BFF7AC6
:100356000D79EE120003755FFF75600D756162859C
:100366003A62853B637B007A00794F1205347B0045
:100376007A00794F1200037BFF7A0E79021200038E
:10038600E549540F8548484460F5497F050204084D
:10039600E54930E21F20921C12136E3092FD054C87
:1003A600E54C7002054BC3943CE54B94004005E4D4
:1003B600F54BF54CE54930E34720934412136E3074
:1003C60093FD7BFF7A0E7919120003755FFF756046
:1003D6000D756162854B62854C637B007A00794FAF
:1003E6001205347B007A00794F1200037BFF7A0EE8
:1003F600792E120003E549540F8548484470F549A3
:100406007F06020834AF3BAE3A1214B48E3A8F3BE5
:10041600AF4CAE4B1214B48E4B8F4CAF47AE461258
:1004260014B48E468F47AE42AF431214B4E48F43E2
:100436008E42F541F540AF3FAE3E1214B48E3E8F6C
:100446003FAF3DAE3C1214B48E3C8F3D7BFF7A0E1F
:10045600794D120003E549540F8548484480F54913
:10046600221215F07FD0121454E4FF121454AF4C2C
:10047600121454AF3B121454AF47121454AF451222
:100486001454AF3D121454AF3F121454AF43121418
:10049600547F801214541215FF7F0112123E7BFF07
:1004A6007A0C79F7E4FDFF1215117BFF7A0C79FDC2
:1004B600E4FD7F011215117F0C12123E5349FB53C6
:1004C60049F74349027BFF7A0E79611200034349DB
:0104D6000124
:0104D7002202
:020834008F55DE
:10083600EF600464017045755FFF75600D75616258
:10084600853C62853D637B007A007956120534E566
:10085600556401701A7F64FEFDFC1213767BFF7AE5
:100866000E79757D06E4FF1215117F641213707BF5
:10087600007A0079567D06E4FF121511AF55EF6038
:100886000464027045755FFF75600E756178853E7C
:1008960062853F637B007A007956120534E555641C
:1008A60002701A7F64FEFDFC1213767BFF7A0E79C6
:1008B600757D09E4FF1215117F641213707B007AAF
:1008C6000079567D08E4FF121511AF55EF600464F8
:1008D600037055755FFF75600E75617EE54324D024
:1008E600F565E5423407F564E43541F563E43540E2
:1008F600F5627B007A007956120534E5556403707B
:100906001A7F64FEFDFC1213767BFF7A0E79857DD5
:100916000CE4FF1215117F641213707B007A0079C4
:10092600567D0BE4FF121511AF55EF600464077096
:10093600757BFF7A0E798A7D10E4FF121511E54466
:100946007064E54514B40700505C90095E75F003C9
:10095600A4C58325F0C5837302097302097B0209C6
:100966008302098B02099302099B0209A37BFF7A82
:100976000E798C802E7BFF7A0E799080267BFF7A0B
:100986000E7994801E7BFF7A0E799880167BFF7A0B
:100996000E799C800E7BFF7A0E79A080067BFF7A0B
:1009A6000E79A4121484AF55EF6004640470457583
:1009B6005FFF75600D7561628546628547637B00E2
:1009C6007A007956120534E5556404701A7F64FE80
:1009D600FDFC1213767BFF7A0E79757D067F011278
:1009E60015117F641213707B007A0079567D067F9D
:1009F60001121511AF55EF600464057045755FFF70
:100A060075600E7561A8853A62853B637B007A0046
:100A16007956120534E5556405701A7F64FEFDFCAF
:100A26001213767BFF7A0E79757D097F01121511F7
:100A36007F641213707B007A0079567D087F01125D
:100A46001511AF55EF600464067045755FFF75605C
:100A56000E7561A8854B62854C637B007A007956DA
:100A6600120534E5556406701A7F64FEFDFC121308
:100A7600767BFF7A0E79757D0C7F011215117F64E6
:100A86001213707B007A0079567D0B7F01121511C7
:010A9600223D
:02158B00AB07AC
:10158D00EB54F0FFE4C4F854F0C868FEEFC4540FF8
:10159D0048FF7C007D0A120AE6EB540F2FFFEC3E4C
:0115AD00FE3F
:0115AE00221A
:0414B400AB07AA06D2
:1014B8007C007D0A120AF8EFC4F8540FC868FFEEE2
:1014C800C454F0488F82F583AE02AF037C007D0AD6
:0B14D800120AF8E5834CFEE5824DFF90
:0114E30022E6
:080FDE008E558F568C578D587B
:100FE600855C60855B5F855A5E85595DC3E558946F
:100FF60003E5579400E450047B018001FBFAF9F8FD
:10100600C3E5609BF560E55F9AF55FE55E99F55E81
:10101600E55D98F55DE47B04FAF9F8AF60AE5FAD87
:101026005EAC5D120B89EF2560FFEE355FFEED3598
:101036005EFDEC355DFCC004C005C006C007E47B60
:1010460064FAF9F8AF60AE5FAD5EAC5D120B89A8CD
:1010560004A905AA06AB07D007D006D005D004C35D
:10106600EF9BFFEE9AFEED99FDEC98FCC004C005DF
:10107600C006C007E47B907A01F9F8AF60AE5FADB9
:101086005EAC5D120B89D003D002D001D000EF2BED
:10109600FFEE3AFEED39FDEC38FCC004A905AA06C0
:1010A600AB07E55825E02420F8E6FE08E6FFEE3318
:1010B60095E0FDFCD000EB2FFBEA3EFAE93DF9E8AE
:1010C6003CF8E4FCFDEB2556FFEA3555FEED39FD0F
:1010D600EC38FCE47B07FAF9F8120B89AE02AF0391
:0110E60022E7
:0811EA008B508A5189528D538C
:1011F200E94A4B600BD3E553941274809480400EFD
:101202007BFF7A0E79AE1200037E007F0322E4FF99
:10121200EFC395535013AB50AA51A9528F827583D5
:1012220000E554120AC40F80E7AB50AA51A9528FAD
:0B12320082758300E4120AC4E4FEFF92
:01123D00228E
:08136E007F327E007D007C004F
:081376008F698E688D678C669B
:10137E00900000AF82AE83EE3395E0FDFCAB69AA20
:10138E0068A967A866D3120C1B4011E4FFFE0FBFBD
:0C139E0000010EEF64704E70F5A380D7C4
:0113AA002220
:1015AF00D2AC759850758920758DFDD28E7F04123F
:0D15BF00132E7F017E007D007C000213765C
:10132E008F4FE54F14601614601014602F14600474
:10133E002404702B431D02431D20431D087B007A9D
:10134E00007908E4F5547D121211EAE4F51A531DE2
:10135E00EFF51B531DFBE54F64047003431D012283
:1015CC00E51D30E00D8F99531DFE3099FDC29943F6
:0315DC001D0122CC
:060003008B558A56895757
:10000900E4FEAB55AA56A9578E82758300120A974A
:09001900FF60061215CC0E80E90F
:0100220022BB
:030023000212E0E6
:1012E000C0E0C0F0C083C082C0D075D000C000C0D4
:1012F00001C002C003C004C005C006C00730990584
:10130000C299431D0130980B531DFD85991B121185
:1013100073C298D007D006D005D004D003D002D035
:0E13200001D000D0D0D082D083D0F0D0E03207
:1013AB008B708A718972E94A4B6008E57545744503
:1013BB007370057E007F02227B007A007908C003E0
:1013CB00C002C001AB70AA71A972120C2C7573000C
:0A13DB0075740075751AE4FEFF2218
:10117300531DF7E51A2401FFE433FEC3EF9412EE87
:1011830064809480505A531DEFE51B24F36022249E
:10119300057034D3E51A9400748094804045E51DAE
:1011A30030E505AF1B1215CCAF1A151A74082F8042
:1011B30011E51D30E505AF1B1215CC431D04740862
:1011C300251AF8E4F6801CE51D30E505AF1B121562
:1011D300CC531DFBAF1A051A74082FF8A61B800306
:0711E300431D10431D022211
:1010F300020EBDE493A3F8E493A34003F68001F248
:1011030008DFF48029E493A3F85407240CC8C333FD
:10111300C4540F4420C8834004F456800146F6DFCC
:10112300E4800B01020408102040809013E5E47E64
:10113300019360BCA3FF543F30E509541FFEE493C1
:10114300A360010ECF54C025E060A840B8E493A388
:10115300FAE493A3F8E493A3C8C582C8CAC583CAB3
:10116300F0A3C8C582C8CAC583CADFE9DEE780BE6B
:01141D0000CE
:100A9700BB010CE58229F582E5833AF583E0225014
:100AA70006E92582F8E622BBFE06E92582F8E2225E
:0D0AB700E58229F582E5833AF583E4932278
:100AC400F8BB010DE58229F582E5833AF583E8F068
:100AD400225006E92582C8F622BBFE05E92582C814
:020AE400F222FC
:100AE600EF8DF0A4A8F0CF8CF0A428CE8DF0A42E24
:020AF600FE22DE
:100AF800BC000BBE0029EF8DF084FFADF022E4CCE2
:100B0800F875F008EF2FFFEE33FEEC33FCEE9DECAA
:100B1800984005FCEE9DFE0FD5F0E9E4CEFD22EDF0
:100B2800F8F5F0EE8420D21CFEADF075F008EF2F3A
:100B3800FFED33FD4007985006D5F0F222C398FD2B
:050B48000FD5F0EA22C8
:100B4D0075F008758200EF2FFFEE33FECD33CDCC5F
:100B5D0033CCC58233C5829BED9AEC99E5829840E2
:100B6D000CF582EE9BFEED9AFDEC99FC0FD5F0D6BF
:100B7D00E4CEFBE4CDFAE4CCF9A88222B800C1B9E9
:100B8D000059BA002DEC8BF084CFCECDFCE5F0CB27
:100B9D00F97818EF2FFFEE33FEED33FDEC33FCEB60
:100BAD0033FB10D703994004EB99FB0FD8E5E4F91B
:100BBD00FA227818EF2FFFEE33FEED33FDEC33FC08
:100BCD00C933C910D7059BE99A4007EC9BFCE99AFC
:100BDD00F90FD8E0E4C9FAE4CCFB2275F010EF2F41
:100BED00FFEE33FEED33FDCC33CCC833C810D70741
:100BFD009BEC9AE899400AED9BFDEC9AFCE899F87C
:0E0C0D000FD5F0DAE4CDFBE4CCFAE4C8F9220E
:100C1B00EB9FF5F0EA9E42F0E99D42F0E89C45F02F
:010C2B0022A6
:100C2C00BB011A89828A83D0F0D0E0F8D0E0F9D0E9
:100C3C00E0FAD0E0FBE8C0E0C0F0020CBF5016E9CF
:100C4C00F8D083D082D0E0F9D0E0FAD0E0FBC082BB
:100C5C00C083020CB6BBFE16E9F8D083D082D0E07C
:0F0C6C00F9D0E0FAD0E0FBC082C083020CC822AE
:1004D800E56B245FF8E6056B22785C300702785FED
:1004E800E475F001120CA6020C7B2000EB7F2ED2E3
:1004F800008018EF540F2490D43440D4FF30040BFC
:10050800EF24BFB41A0050032461FFE56C600215A4
:100518006C056FE56F7002056E30070D785CE47549
:10052800F001120CA6EF020C940215647403D207B2
:100538008003E4C207F56B8B5C8A5D895EE4F56C29
:10054800F56EF56FE56C60077F2012051380F57571
:100558006DFFC201C200C202C203C205C206C208C0
:100568001204E1FF700D3007057F00120524AF6FFC
:10057800AE6E22B4255FC2D5C2041204E1FF24D0B6
:10058800B40A00501A75F00A786C30D50508B6FF21
:100598000106C6A426F620D5047002D20380D92409
:1005A800CFB41A00EF5004C2E5D204020724D201E6
:1005B80080C6D20080C0D20280BCD2D580BAD20513
:1005C80080B47F201205132002077401B56C004027
:1005D800F11204D8FF12051302054CD208D2068086
:1005E800951204D8FB1204D8FA1204D8F94A4B70B1
:1005F8000679F57A077BFF20022EE56C602A7E00DB
:100608008E82758300120A9760060EEE656D70F093
:10061800C2D5EBC0E0EAC0E0E9C0E0EE12076BD05B
:10062800E0F9D0E0FAD0E0FB120C7BFF60AAEBC047
:10063800E0EAC0E0E9C0E0120513D0E02401F9D0F7
:10064800E03400FAD0E0FBE56D0460DCD56DD980BC
:10065800877BFF7A077967D202809C7910800279BC
:1006680008C206C2088008D2D5790A8004790AC26D
:10067800D5E56D047002F56DE4FAFDFEFF1204D8AD
:10068800FC7B082001131204D8FD7B1030000A12ED
:1006980004D8FE1204D8FF7B20EC3382D592D550C3
:1006A80013C3E43000069FFFE49EFEE42001039D8F
:1006B800FDE49CFCE4CBF8C201EC700CCFCECDCCB1
:1006C800E824F8F870F38017C3EF33FFEE33FEED3C
:1006D80033FDEC33FCEB33FB994002FB0FD8E9EB1D
:1006E800300105F8D0E0C448B201C0E00AEC4D4E34
:1006F8004F78207B0070C2EAB56D0040BCC0E012A4
:10070800076DD0F0D0E0200104C4C0E0C4B201C03D
:10071800F01204FCD0F0D5F0EB02054C120CD10518
:10072800E95306635805BA4C05B64206674F066F8B
:0F07380044066F4905CF430675550659460659C5
:100747004506594708155005BE2D05C22E05E52B50
:1007570005C62305E32007FE2A057E48000005DDC0
:100767003F3F3F00790AA2D5200314300509B9108D
:10077700020404B9080104A2D5200602500104208E
:1007870002689202B56C005034C0E07F2030031934
:100797007F30A20272067205500F1207C4C202C24E
:1007A70006C205C2087F30800F300503E9C0E0129A
:1007B7000513300503D0E0F9D0E0B56CCC30051750
:1007C7007F30B9100C1205137F583004077F7880EB
:1007D70003B908031205133002057F2D0205137FA5
:1007E700202008F87F2B2006F322920280CF286E64
:1007F700756C6C2900D2011204D83001F8C2017857
:100807006C30D50108F602057E2D50434958120475
:10081700D82403B405004001E4900810931205049E
:0D082700743A120504D203756C04020663D6
:100C7B00BB010689828A83E0225002E722BBFE0277
:090C8B00E32289828A83E49322AA
:100C9400BB010689828A83F0225002F722BBFE013F
:020CA400F32239
:100CA600FAE6FB0808E6F925F0F618E6CA3AF6224F
:090CB600EBF608EAF608E9F62263
:090CBF00EBF0A3EAF0A3E9F02236
:090CC800EBF208EAF208E9F2225D
:100CD100D083D082F8E4937012740193700DA3A3B2
:100CE10093F8740193F5828883E4737402936860C6
:060CF100EFA3A3A380DFC6
:10156400EFB40A07740D12156F740A309811A89914
:10157400B8130CC2983098FDA899C298B811F630E7
:0715840099FDC299F59922BF
:00000001FF
