:030000000210B239
:0C10B200787FE4F6D8FD7581750210F916
:0F15BB00D282D2810000C2820000C281000022D1
:0B15CA00C2820000D2810000D2822209
:1015AA00D2820000D2810000C2820000C281000003
:0115BA00220E
:1013E900C20A300903430701E4FDFCEF30E703D3E8
:1013F9008001C39282D281EF25E0FFC2810DBD0039
:10140900010CED64084C70E32082FDD2810000C21A
:05141900810000A28229
:01141E0022AB
:10141F00C200E4FDFCEF30E703D38001C39282D218
:10142F0081EF25E0FFC2810DBD00010CED64084C7A
:0F143F0070E32082FDD2810000C2810000A282F2
:01144E00227B
:1014AF00E4FFD282FDFCD281EF25E0FFA282E4337C
:1014BF004207C281000DBD00010CED64084C70E6BF
:0C14CF00A20092820000D2810000C281C5
:0114DB0022EE
:101209008F60E56054F0FFE5A0540F4FF5A0C2A32D
:10121900D2A27F017E007D007C00121341C2A27F11
:10122900027E007D007C00121341E560C454F0FF8A
:10123900E5A0540F4FF5A0D2A27F017E007D007C6E
:1012490000121341C2A27F057E007D007C000213BB
:011259004153
:10125A008F65E56554F0FFE5A0540F4FF5A0D2A3C2
:10126A00D2A27F017E007D007C00121341C2A27FC0
:10127A00027E007D007C00121341E565C454F0FF34
:10128A00E5A0540F4FF5A0D2A27F017E007D007C1D
:10129A0000121341C2A27F057E007D007C0002136A
:0112AA004102
:06144F008B608A618962D6
:10145500E4F563F564AB60AA61A96285648285637E
:1014650083120834FFFD3395E04D600D12125A05C5
:0914750064E56470E0056380DCAD
:01147E00224B
:1014DC008D5C8B5D8A5E895FEF3395E04F7008E51C
:1014EC005C543F44808006E55C543F44C0FF1212BC
:0A14FC0009AB5DAA5EA95F02144F60
:101506007F147E007D007C001213417F02121209B7
:101516007F281212097F0C1212097F061212097F08
:09152600011212097F8002120972
:100CD300444154453A0054494D453A000D20494E8C
:100CE300464F3A202D3E20536574204461746100C1
:100CF3000D20494E505554203A20536574205965B0
:100D03006172203D20002530346C75000D20494E62
:100D1300464F3A202D3E20536574204D6F6E746804
:100D2300000D20494E5055543A20536574204D6FA1
:100D33006E7468203D200025303275000D20494E29
:100D4300464F3A202D3E205365742044617465005C
:100D53000D20494E5055543A205365742044617414
:100D630065203D20000D20494E464F3A202D3E2060
:100D730053657420446179000D2043616C633A200C
:100D8300446179203D20000D20494E464F3A202DE5
:100D93003E2053657420486F7572000D20494E50F4
:100DA3005554203A20486F7572203D20000D20498C
:100DB3004E464F3A202D3E20536574204D696E7583
:100DC3007465000D20494E505554203A204D696EEC
:100DD300757465203D20000D20494E464F3A202D65
:100DE3003E20536574205365636F6E6473000D205A
:100DF300494E505554203A205365636F6E647320F7
:100E03003D20000D20494E464F3A202D3E2044659B
:100E130063696D616C20746F2042434420436F6E9D
:100E230076000D20494E464F3A202D3E2052544322
:100E330020436F6E66000D20494E464F3A202D3EEB
:100E4300205265616420525443002020002F253036
:100E53003275002F2530346C7500202020200020AF
:100E63000053554E004D4F4E0054554500574544D1
:100E7300005448550046524900534154003A253026
:100E83003275004552523A205374725F46696C6C56
:020E93000D0050
:1013B000023C0015023E000502460000023A000011
:1013C000024B0000024400010440000000171822F4
:1013D00000000003000200050000000300050001FA
:0813E0000004000600020004F5
:100E9500C297D291D292D29312157A1215067BFF80
:100EA5007A0C79D3E4FDFF1214DC7BFF7A0C79D937
:100EB500E4FD7F011214DC4349014349025349FB18
:100EC5005349F7E54930E14120913E754D00754E96
:100ED500C812133920910DE54E154E7002154D14AB
:100EE500454D70F05349FD4349044349087F0C12B1
:100EF50012097BFF7A0C79DF1200035349FEE5499D
:100F0500540F8548484420F549E5495401146008C3
:100F15000470B012002680AB1215BB7FD012141FCF
:100F2500E4FF12141F1215BB7FD112141FC2001249
:100F350014AF7E001215568E4B8F4CC2001214AFA3
:100F45007E001215568E3A8F3BC2001214AF7E00FA
:100F55001215568E468F47C2001214AF7E00121529
:100F6500568E448F45C2001214AF7E001215568E60
:100F75003C8F3DC2001214AF7E001215568E3E8F77
:100F85003FD2001214AF7E00121556E48F438E42F5
:100F9500F541F5401215CAE4FF120A947F011213B8
:040FA5003B020EC835
:10002600E548C4F854F0C8E549C4540F48540FB421
:10003600090040030204D7900044F82828730201FF
:100046006F02010102005F0202450202AC020321B7
:1000560002039602040B020467E54930E23C209253
:10006600391213393092FDE5432401F543E4354254
:10007600F542E43541F541E43540F540E47F29FE9B
:10008600FDFCAB43AA42A941A840C31209B8400AE5
:10009600E4754317F542F541F540E54930E357204D
:1000A60093541213393093FD7BFF7A0C79F31200C7
:1000B60003755FFF75600D756109E54324D0F5652D
:1000C600E5423407F564E43541F563E43540F5620D
:1000D6007B007A00794F1205347B007A00794F1243
:1000E60000037BFF7A0D790F120003E549540F8553
:1000F60048484410F5497F03020408E54930E220E8
:1001060020921D1213393092FD053FE53F7002051E
:100116003EC3940DE53E94004006753E00753F01D2
:10012600E54930E33F20933C1213393093FD7BFFC2
:100136007A0D7924120003755FFF75600D75613ABB
:10014600853E62853F637B007A00794F1205347BDA
:10015600007A00794F1200037BFF7A0D793F120077
:100166000353490F7F02020408E54920E203020116
:10017600F420927A1213393092FDE5435403FF05B9
:100186003DE53D7002053CE53F6402453E7023EFC8
:10019600FD3395E0FC4D600BC3E53D941DE53C94B5
:1001A600005045ED4C700BC3E53D941EE53C9400B4
:1001B6005036C3E53D941FE53C94004020E53F647E
:1001C60004453E6023E53F6406453E601BE53F640B
:1001D60009453E6013E53F640B453E600BC3E53DB4
:1001E6009420E53C94004006753C00753D01E549C8
:1001F60030E3472093441213393093FD7BFF7A0D89
:100206007953120003755FFF75600D75613A853C81
:1002160062853D637B007A00794F1205347B007A54
:1002260000794F1200037BFF7A0D7968120003E50F
:1002360049540F8548484430F5497F010204088532
:10024600435C85425B85415A854059AD3FAC3EAF24
:100256003DAE3C120FA98E448F450545E54570021B
:1002660005447F07120A947BFF7A0D797B120003FF
:10027600755FFF75600D75613A8544628545637BE0
:10028600007A00794F1205347B007A00794F12000C
:10029600037BFF7A0D798A120003E549540F8548DE
:1002A600484440F54922E54930E21F20921C1213CA
:1002B600393092FD0547E54770020546C39418E5B7
:1002C6004694004005E4F546F547E54930E3472006
:1002D60093441213393093FD7BFF7A0D799E1200F9
:1002E60003755FFF75600D75613A854662854763E4
:1002F6007B007A00794F1205347B007A00794F1221
:1003060000037BFF7A0D79B0120003E549540F858F
:1003160048484450F5497F04020408E54930E21F85
:1003260020921C1213393092FD053BE53B70020505
:100336003AC3943CE53A94004005E4F53AF53BE5CA
:100346004930E3472093441213393093FD7BFF7AFB
:100356000D79C6120003755FFF75600D75613A85EC
:100366003A62853B637B007A00794F1205347B0045
:100376007A00794F1200037BFF7A0D79DA120003B7
:10038600E549540F8548484460F5497F050204084D
:10039600E54930E21F20921C1213393092FD054CBC
:1003A600E54C7002054BC3943CE54B94004005E4D4
:1003B600F54BF54CE54930E34720934412133930A9
:1003C60093FD7BFF7A0D79F1120003755FFF75606F
:1003D6000D75613A854B62854C637B007A00794FD7
:1003E6001205347B007A00794F1200037BFF7A0EE8
:1003F6007906120003E549540F8548484470F549CB
:100406007F06020A94AF3BAE3A12147F8E3A8F3BB8
:10041600AF4CAE4B12147F8E4B8F4CAF47AE46128D
:10042600147F8E468F47AE42AF4312147FE48F434C
:100436008E42F541F540AF3FAE3E12147F8E3E8FA1
:100446003FAF3DAE3C12147F8E3C8F3D7BFF7A0E54
:100456007925120003E549540F8548484480F5493B
:10046600221215BB7FD012141FE4FF12141FAF4CCB
:1004760012141FAF3B12141FAF4712141FAF4512C1
:10048600141FAF3D12141FAF3F12141FAF431214B7
:100496001F7F8012141F1215CA7F011212097BFFDB
:1004A6007A0C79D3E4FDFF1214DC7BFF7A0C79D940
:1004B600E4FD7F011214DC7F0C1212095349FB5331
:1004C60049F74349027BFF7A0E7939120003434903
:0104D6000124
:0104D7002202
:020A94008F557C
:100A9600EF600464017042755FFF75600D75613A21
:100AA600853C62853D637B007A007956120534E504
:100AB600557009FB7A0079567D0680197BFF7A0E00
:100AC600794D7D06E4FF1214DC1213397B007A009F
:100AD60079567D06E4FF1214DCAF55EF600464021C
:100AE6007042755FFF75600E756150853E62853F89
:100AF600637B007A007956120534E5557009FB7A56
:100B06000079567D0880197BFF7A0E794D7D09E4C0
:100B1600FF1214DC1213397B007A0079567D08E443
:100B2600FF1214DCAF55EF600464037052755FFF6B
:100B360075600E756156E54324D0F565E5423407C8
:100B4600F564E43541F563E43540F5627B007A00EF
:100B56007956120534E5557009FB7A0079567D0BF6
:100B660080197BFF7A0E795D7D0CE4FF1214DC128E
:100B760013397B007A0079567D0BE4FF1214DCAF43
:100B860055EF6004640770757BFF7A0E79627D10FD
:100B9600E4FF1214DCE5447064E54514B407005024
:100BA6005C900BB575F003A4C58325F0C58373026D
:100BB6000BCA020BD2020BDA020BE2020BEA020BA1
:100BC600F2020BFA7BFF7A0E7964802E7BFF7A0E97
:100BD600796880267BFF7A0E796C801E7BFF7A0E01
:100BE600797080167BFF7A0E7974800E7BFF7A0E01
:100BF600797880067BFF7A0E797C12144FAF55EF19
:100C060060046404703C755FFF75600D75613A851C
:100C160046628547637B007A007956120534E555AE
:100C26007003FB80127BFF7A0E794D7D067F0112E1
:100C360014DC1213397B007A0079567D067F011287
:100C460014DCAF55EF60046405703C755FFF75609A
:100C56000E756180853A62853B637B007A00795622
:100C6600120534E5557003FB80127BFF7A0E794D31
:100C76007D097F011214DC1213397B007A00795644
:100C86007D087F011214DCAF55EF60046406703CEA
:100C9600755FFF75600E756180854B62854C637B61
:100CA600007A007956120534E5557003FB80127BF5
:100CB600FF7A0E794D7D0C7F011214DC1213397BFD
:0C0CC600007A0079567D0B7F011214DCCF
:010CD20022FF
:02155600AB07E1
:10155800EB54F0FFE4C4F854F0C868FEEFC4540F2D
:1015680048FF7C007D0A120883EB540F2FFFEC3EE6
:01157800FE74
:01157900224F
:04147F00AB07AA0607
:101483007C007D0A120895EFC4F8540FC868FFEE7C
:10149300C454F0488F82F583AE02AF037C007D0A0B
:0B14A300120895E5834CFEE5824DFF2A
:0114AE00221B
:080FA9008E558F568C578D58B0
:100FB100855C60855B5F855A5E85595DC3E55894A4
:100FC10003E5579400E450047B018001FBFAF9F832
:100FD100C3E5609BF560E55F9AF55FE55E99F55EB7
:100FE100E55D98F55DE47B04FAF9F8AF60AE5FADBD
:100FF1005EAC5D120926EF2560FFEE355FFEED3533
:101001005EFDEC355DFCC004C005C006C007E47B95
:1010110064FAF9F8AF60AE5FAD5EAC5D120926A867
:1010210004A905AA06AB07D007D006D005D004C392
:10103100EF9BFFEE9AFEED99FDEC98FCC004C00514
:10104100C006C007E47B907A01F9F8AF60AE5FADEE
:101051005EAC5D120926D003D002D001D000EF2B87
:10106100FFEE3AFEED39FDEC38FCC004A905AA06F5
:10107100AB07E55825E02420F8E6FE08E6FFEE334D
:1010810095E0FDFCD000EB2FFBEA3EFAE93DF9E8E3
:101091003CF8E4FCFDEB2556FFEA3555FEED39FD44
:1010A100EC38FCE47B07FAF9F8120926AE02AF032B
:0110B100221C
:0811B5008B508A5189528D53C1
:1011BD00E94A4B600BD3E553941274809480400E32
:1011CD007BFF7A0E79861200037E007F0322E4FFF7
:1011DD00EFC395535013AB50AA51A9528F8275830B
:1011ED0000E5541208610F80E7AB50AA51A9528F48
:0B11FD0082758300E4120861E4FEFF2D
:0112080022C3
:081339007F647E007D007C0052
:081341008F698E688D678C66D0
:10134900900000AF82AE83EE3395E0FDFCAB69AA55
:1013590068A967A866D31209B84011E4FFFE0FBF58
:0C13690000010EEF64704E70F5A380D7F9
:011375002255
:10157A00D2AC759850758920758DFDD28E7F041274
:0D158A0012F97F017E007D007C00021341FC
:1012F9008F4FE54F14601614601014602F146004AA
:101309002404702B431D02431D20431D087B007AD2
:10131900007908E4F5547D121211B5E4F51A531D4C
:10132900EFF51B531DFBE54F64047003431D0122B8
:10159700E51D30E00D8F99531DFE3099FDC299432B
:0315A7001D012201
:060003008B558A56895757
:10000900E4FEAB55AA56A9578E82758300120834AF
:09001900FF60061215970E80E944
:0100220022BB
:030023000212AB1B
:1012AB00C0E0C0F0C083C082C0D075D000C000C009
:1012BB0001C002C003C004C005C006C007309905B9
:1012CB00C299431D0130980B531DFD85991B1211BB
:1012DB003EC298D007D006D005D004D003D002D0A0
:0E12EB0001D000D0D0D082D083D0F0D0E0323D
:101376008B708A718972E94A4B6008E57545744538
:101386007370057E007F02227B007A007908C00315
:10139600C002C001AB70AA71A9721209C9757300A7
:0A13A60075740075751AE4FEFF224D
:10113E00531DF7E51A2401FFE433FEC3EF9412EEBC
:10114E0064809480505A531DEFE51B24F3602224D3
:10115E00057034D3E51A9400748094804045E51DE3
:10116E0030E505AF1B121597AF1A151A74082F80AC
:10117E0011E51D30E505AF1B121597431D047408CC
:10118E00251AF8E4F6801CE51D30E505AF1B121597
:10119E0097531DFBAF1A051A74082FF8A61B800370
:0711AE00431D10431D022246
:1010BE00020E95E493A3F8E493A34003F68001F2A5
:1010CE0008DFF48029E493A3F85407240CC8C33333
:1010DE00C4540F4420C8834004F456800146F6DF02
:1010EE00E4800B01020408102040809013B0E47ECF
:1010FE00019360BCA3FF543F30E509541FFEE493F7
:10110E00A360010ECF54C025E060A840B8E493A3BD
:10111E00FAE493A3F8E493A3C8C582C8CAC583CAE8
:10112E00F0A3C8C582C8CAC583CADFE9DEE780BEA0
:0113E8000004
:10083400BB010CE58229F582E5833AF583E0225079
:1008440006E92582F8E622BBFE06E92582F8E222C3
:0D085400E58229F582E5833AF583E49322DD
:10086100F8BB010DE58229F582E5833AF583E8F0CD
:10087100225006E92582C8F622BBFE05E92582C879
:02088100F22261
:10088300EF8DF0A4A8F0CF8CF0A428CE8DF0A42E89
:02089300FE2243
:10089500BC000BBE0029EF8DF084FFADF022E4CC47
:1008A500F875F008EF2FFFEE33FEEC33FCEE9DEC10
:1008B500984005FCEE9DFE0FD5F0E9E4CEFD22ED56
:1008C500F8F5F0EE8420D21CFEADF075F008EF2FA0
:1008D500FFED33FD4007985006D5F0F222C398FD91
:0508E5000FD5F0EA222E
:1008EA0075F008758200EF2FFFEE33FECD33CDCCC5
:1008FA0033CCC58233C5829BED9AEC99E582984048
:10090A000CF582EE9BFEED9AFDEC99FC0FD5F0D624
:10091A00E4CEFBE4CDFAE4CCF9A88222B800C1B94E
:10092A000059BA002DEC8BF084CFCECDFCE5F0CB8C
:10093A00F97818EF2FFFEE33FEED33FDEC33FCEBC5
:10094A0033FB10D703994004EB99FB0FD8E5E4F980
:10095A00FA227818EF2FFFEE33FEED33FDEC33FC6D
:10096A00C933C910D7059BE99A4007EC9BFCE99A61
:10097A00F90FD8E0E4C9FAE4CCFB2275F010EF2FA6
:10098A00FFEE33FEED33FDCC33CCC833C810D707A6
:10099A009BEC9AE899400AED9BFDEC9AFCE899F8E1
:0E09AA000FD5F0DAE4CDFBE4CCFAE4C8F92274
:1009B800EB9FF5F0EA9E42F0E99D42F0E89C45F095
:0109C800220C
:1009C900BB011A89828A83D0F0D0E0F8D0E0F9D04F
:1009D900E0FAD0E0FBE8C0E0C0F0020A5C5016E99A
:1009E900F8D083D082D0E0F9D0E0FAD0E0FBC08221
:1009F900C083020A53BBFE16E9F8D083D082D0E047
:0F0A0900F9D0E0FAD0E0FBC082C083020A652278
:1004D800E56B245FF8E6056B22785C300702785FED
:1004E800E475F001120A43020A182000EB7F2ED2AD
:1004F800008018EF540F2490D43440D4FF30040BFC
:10050800EF24BFB41A0050032461FFE56C600215A4
:100518006C056FE56F7002056E30070D785CE47549
:10052800F001120A43EF020A3102152F7403D207B1
:100538008003E4C207F56B8B5C8A5D895EE4F56C29
:10054800F56EF56FE56C60077F2012051380F57571
:100558006DFFC201C200C202C203C205C206C208C0
:100568001204E1FF700D3007057F00120524AF6FFC
:10057800AE6E22B4255FC2D5C2041204E1FF24D0B6
:10058800B40A00501A75F00A786C30D50508B6FF21
:100598000106C6A426F620D5047002D20380D92409
:1005A800CFB41A00EF5004C2E5D204020724D201E6
:1005B80080C6D20080C0D20280BCD2D580BAD20513
:1005C80080B47F201205132002077401B56C004027
:1005D800F11204D8FF12051302054CD208D2068086
:1005E800951204D8FB1204D8FA1204D8F94A4B70B1
:1005F8000679F57A077BFF20022EE56C602A7E00DB
:100608008E8275830012083460060EEE656D70F0F8
:10061800C2D5EBC0E0EAC0E0E9C0E0EE12076BD05B
:10062800E0F9D0E0FAD0E0FB120A18FF60AAEBC0AC
:10063800E0EAC0E0E9C0E0120513D0E02401F9D0F7
:10064800E03400FAD0E0FBE56D0460DCD56DD980BC
:10065800877BFF7A077967D202809C7910800279BC
:1006680008C206C2088008D2D5790A8004790AC26D
:10067800D5E56D047002F56DE4FAFDFEFF1204D8AD
:10068800FC7B082001131204D8FD7B1030000A12ED
:1006980004D8FE1204D8FF7B20EC3382D592D550C3
:1006A80013C3E43000069FFFE49EFEE42001039D8F
:1006B800FDE49CFCE4CBF8C201EC700CCFCECDCCB1
:1006C800E824F8F870F38017C3EF33FFEE33FEED3C
:1006D80033FDEC33FCEB33FB994002FB0FD8E9EB1D
:1006E800300105F8D0E0C448B201C0E00AEC4D4E34
:1006F8004F78207B0070C2EAB56D0040BCC0E012A4
:10070800076DD0F0D0E0200104C4C0E0C4B201C03D
:10071800F01204FCD0F0D5F0EB02054C120A6E057D
:10072800E95306635805BA4C05B64206674F066F8B
:0F07380044066F4905CF430675550659460659C5
:100747004506594708155005BE2D05C22E05E52B50
:1007570005C62305E32007FE2A057E48000005DDC0
:100767003F3F3F00790AA2D5200314300509B9108D
:10077700020404B9080104A2D5200602500104208E
:1007870002689202B56C005034C0E07F2030031934
:100797007F30A20272067205500F1207C4C202C24E
:1007A70006C205C2087F30800F300503E9C0E0129A
:1007B7000513300503D0E0F9D0E0B56CCC30051750
:1007C7007F30B9100C1205137F583004077F7880EB
:1007D70003B908031205133002057F2D0205137FA5
:1007E700202008F87F2B2006F322920280CF286E64
:1007F700756C6C2900D2011204D83001F8C2017857
:100807006C30D50108F602057E2D50434958120475
:10081700D82403B405004001E4900810931205049E
:0D082700743A120504D203756C04020663D6
:100A1800BB010689828A83E0225002E722BBFE02DC
:090A2800E32289828A83E493220F
:100A3100BB010689828A83F0225002F722BBFE01A4
:020A4100F3229E
:100A4300FAE6FB0808E6F925F0F618E6CA3AF622B4
:090A5300EBF608EAF608E9F622C8
:090A5C00EBF0A3EAF0A3E9F0229B
:090A6500EBF208EAF208E9F222C2
:100A6E00D083D082F8E4937012740193700DA3A317
:100A7E0093F8740193F5828883E47374029368602B
:060A8E00EFA3A3A380DF2B
:10152F00EFB40A07740D12153A740A309811A8997E
:10153F00B8130CC2983098FDA899C298B811F6301C
:07154F0099FDC299F59922F4
:00000001FF
