:03000000021032B9
:0C103200787FE4F6D8FD75817502107916
:0F14FA00D282D2810000C2820000C28100002293
:0B150900C2820000D2810000D28222CA
:1014E900D2820000D2810000C2820000C2810000C5
:0114F90022D0
:10130C00C20A300903430701E4FDFCEF30E703D3C5
:10131C008001C39282D281EF25E0FFC2810DBD0016
:10132C00010CED64084C70E32082FDD2810000C2F8
:05133C00810000A28207
:011341002289
:10134200C200E4FDFCEF30E703D38001C39282D2F6
:1013520081EF25E0FFC2810DBD00010CED64084C58
:0F13620070E32082FDD2810000C2810000A282D0
:011371002259
:1013D200E4FFD282FDFCD281EF25E0FFA282E4335A
:1013E2004207C281000DBD00010CED64084C70E69D
:0C13F200A20092820000D2810000C281A3
:0113FE0022CC
:1011D7008F60E56054F0FFE5A0540F4FF5A0C2A360
:1011E700D2A27F017E0012149DC2A27F027E00124E
:1011F700149DE560C454F0FFE5A0540F4FF5A0D24D
:10120700A27F017E0012149DC2A27F057E000214F8
:011217009D39
:101218008F65E56554F0FFE5A0540F4FF5A0D2A304
:10122800D2A27F017E0012149DC2A27F027E00120C
:10123800149DE565C454F0FFE5A0540F4FF5A0D206
:10124800A27F017E0012149DC2A27F057E000214B7
:011258009DF8
:061372008B608A618962B4
:10137800E4F563F564AB60AA61A96285648285635C
:1013880083120855FFFD3395E04D600D12121805C4
:0913980064E56470E0056380DC8B
:0113A1002229
:1013FF008D5C8B5D8A5E895FEF3395E04F7008E5FA
:10140F005C543F44808006E55C543F44C0FF12119A
:0A141F00D7AB5DAA5EA95F0213724D
:101450007F147E0012149D7F021211D77F28121173
:10146000D77F0C1211D77F061211D77F011211D727
:051470007F800211D78E
:100AB500444154453A0054494D453A000D20494EAC
:100AC500464F3A202D3E20536574204461746100E1
:100AD5000D20494E505554203A20536574205965D0
:100AE5006172203D20002530346C75000D20494E83
:100AF500464F3A202D3E20536574204D6F6E746825
:100B0500000D20494E5055543A20536574204D6FC1
:100B15006E7468203D200025303275000D20494E49
:100B2500464F3A202D3E205365742044617465007C
:100B35000D20494E5055543A205365742044617434
:100B450065203D20000D20494E464F3A202D3E2080
:100B550053657420446179000D2043616C633A202C
:100B6500446179203D20000D20494E464F3A202D05
:100B75003E2053657420486F7572000D20494E5014
:100B85005554203A20486F7572203D20000D2049AC
:100B95004E464F3A202D3E20536574204D696E75A3
:100BA5007465000D20494E505554203A204D696E0C
:100BB500757465203D20000D20494E464F3A202D85
:100BC5003E20536574205365636F6E6473000D207A
:100BD500494E505554203A205365636F6E64732017
:100BE5003D20000D20494E464F3A202D3E204465BC
:100BF50063696D616C20746F2042434420436F6EBE
:100C050076000D20494E464F3A202D3E2052544342
:100C150020436F6E66000D20494E464F3A202D3E0B
:100C2500205265616420525443002F2530327500EF
:100C35002F2530346C75003A2530327500202000A0
:100C450053554E004D4F4E005455450057454400F1
:100C55005448550046524900534154004552523AB2
:0B0C6500205374725F46696C6C0D0038
:1012D300023C0015023E000502460000023A0000EF
:1012E300024B0000024400010440000000171822D2
:1012F30000000003000200050000000300050001D8
:081303000004000600020004D2
:100E1300C297D291D292D2931214BD1214507BFF77
:100E23007A0A79B5E4FDFF1213FF7BFF7A0A79BBD7
:100E3300E4FD7F011213FF4349014349025349FB78
:100E43005349F7E54930E14120913E754D00754E18
:100E5300C812149920910DE54E154E7002154D14CC
:100E6300454D70F05349FD4349044349087F0E1231
:100E730011D77BFF7A0A79C11200035349FEE54972
:100E8300540F8548484420F549E549540114600846
:100E93000470B012002680AB1214FA7FD0121342F2
:100EA300E4FF1213421214FA7FD1121342C200124A
:100EB30013D27E001214758E4B8F4CC2001213D2C4
:100EC3007E001214758E3A8F3BC2001213D27E003D
:100ED3001214758E468F47C2001213D27E0012146D
:100EE300758E448F45C2001213D27E001214758E84
:100EF3003C8F3DC2001213D27E001214758E3E8FBA
:100F03003FD2001213D27E00121475E48F438E4237
:100F1300F541F540121509E4FF120C707F017E00C4
:060F230012149D020E46AF
:10002600E548C4F854F0C8E549C4540F48540FB421
:10003600090040030204F8900044F82828730201DE
:100046007D02010802005F0202510202B802033477
:100056000203B002042C020488E54930E2412092F2
:100066003E1214993092FDE5432401F543E43542EE
:10007600F542E43541F541E43540F540E47F1FFEA5
:10008600FDFCAB43AA42A941A840C31209D9400AC4
:10009600E4754317F542F541F5407F03120C70E510
:1000A6004920E3030204F83093030204F81214997A
:1000B6003093FD7BFF7A0A79D5120003755FFF75D1
:1000C600600A7561EBE54324D0F565E5423407F532
:1000D60064E43541F563E43540F5627B007A0079E6
:1000E6004F1205557B007A00794F1200037BFF7A89
:1000F6000A79F1120003E549540F8548484410F582
:100106004922E54930E2252092221214993092FDC7
:10011600053FE53F7002053EC3940DE53E94004061
:1001260006753E00753F017F02120C70E54920E31B
:10013600030204F83093030204F81214993093FD75
:100146007BFF7A0B7906120003755FFF75600B75EE
:10015600611C853E62853F637B007A00794F1205FC
:10016600557B007A00794F1200037BFF7A0B7921C9
:1001760012000353490F22E54930E27C209279129E
:1001860014993092FDE5435403FF053DE53D7002A9
:10019600053CE53F6402453E7020EFFD3395E0FCEB
:1001A600ED64014C7008E53D641C453C603FED4C38
:1001B6007008E53D641D453C6033E53D641F453CE4
:1001C6007020E53F6404453E6023E53F6406453EF6
:1001D600601BE53F6409453E6013E53F640B453E01
:1001E600600BC3E53D9420E53C94004006753C0059
:1001F600753D017F01120C70E54920E3030204F806
:100206003093030204F81214993093FD7BFF7A0BA6
:100216007935120003755FFF75600B75611C853CAF
:1002260062853D637B007A00794F1205557B007A23
:1002360000794F1200037BFF7A0B794A120003E51F
:1002460049540F8548484430F5492285435C854228
:100256005B85415A854059AD3FAC3EAF3DAE3C1241
:100266000F298E448F450545E545700205447F07F5
:10027600120C707BFF7A0B795D120003755FFF75B8
:10028600600B75611C8544628545637B007A007945
:100296004F1205557B007A00794F1200037BFF7AD7
:1002A6000B796C120003E549540F8548484440F524
:1002B6004922E54930E2242092211214993092FD18
:1002C6000547E54770020546C39418E54694004085
:1002D60005E4F546F5477F04120C70E54920E30373
:1002E6000204F83093030204F81214993093FD7B4C
:1002F600FF7A0B7980120003755FFF75600B7561DD
:100306001C8546628547637B007A00794F12055546
:100316007B007A00794F1200037BFF7A0B799212E9
:100326000003E549540F8548484450F54922E549FC
:1003360030E2242092211214993092FD053BE53BD0
:100346007002053AC3943CE53A94004005E4F53A58
:10035600F53B7F05120C70E54920E3030204F830F3
:1003660093030204F81214993093FD7BFF7A0B79FC
:10037600A8120003755FFF75600B75611C853A62F4
:10038600853B637B007A00794F1205557B007A0026
:10039600794F1200037BFF7A0B79BC120003E54903
:1003A600540F8548484460F54922E54930E2242047
:1003B60092211214993092FD054CE54C7002054BC2
:1003C600C3943CE54B94004005E4F54BF54C7F06A1
:1003D600120C70E54920E3030204F830930302048B
:1003E600F81214993093FD7BFF7A0B79D312000330
:1003F600755FFF75600B75611C854B62854C637B71
:10040600007A00794F1205557B007A00794F120069
:10041600037BFF7A0B79E8120003E549540F854800
:10042600484470F54922AF3BAE3A1213A28E3A8F7A
:100436003BAF4CAE4B1213A28E4B8F4CAF47AE4622
:100446001213A28E468F47AE42AF431213A2E48F19
:10045600438E42F541F540AF3FAE3E1213A28E3EAB
:100466008F3FAF3DAE3C1213A28E3C8F3D7BFF7A91
:100476000C7907120003E549540F8548484480F576
:1004860049221214FA7FD0121342E4FF121342AF2C
:100496004C121342AF3B121342AF47121342AF4501
:1004A600121342AF3D121342AF3F121342AF431233
:1004B60013427F801213421215097F011211D77B56
:1004C600FF7A0A79B5E4FDFF1213FF7BFF7A0A79FA
:1004D600BBE4FD7F011213FF7F0C1211D75349FBBA
:1004E6005349F74349027BFF7A0C791B12000343F9
:0204F6004901BA
:0104F80022E1
:020C70008F559E
:100C7200EF600464017025755FFF75600B75611C80
:100C8200853C62853D637B007A0079561205557B6F
:100C9200007A0079567D06E4FF1213FFAF55EF602C
:100CA2000464027025755FFF75600C75612F853EC7
:100CB20062853F637B007A0079561205557B007A84
:100CC2000079567D08E4FF1213FFAF55EF6004640C
:100CD200037035755FFF75600C756135E54324D08F
:100CE200F565E5423407F564E43541F563E43540E2
:100CF200F5627B007A0079561205557B007A0079FD
:100D0200567D0BE4FF1213FFAF55EF6004640470CD
:100D120025755FFF75600B75611C854662854763AB
:100D22007B007A0079561205557B007A0079567D50
:100D3200067F011213FFAF55EF600464057025753D
:100D42005FFF75600C75613C853A62853B637B0091
:100D52007A0079561205557B007A0079567D087F14
:100D6200011213FFAF55EF600464067025755FFF33
:100D720075600C75613C854B62854C637B007A0023
:100D820079561205557B007A0079567D0B7F011248
:100D920013FFAF55EF6004640770757BFF7A0C791F
:100DA200427D0E7F011213FFE5447064E54514B4E1
:100DB2000700505C900DC475F003A4C58325F0C5EF
:100DC2008373020DD9020DE1020DE9020DF1020D4C
:100DD200F9020E01020E097BFF7A0C7945802E7B07
:100DE200FF7A0C794980267BFF7A0C794D801E7B35
:100DF200FF7A0C795180167BFF7A0C7955800E7B35
:100E0200FF7A0C795980067BFF7A0C795D12137296
:010E120022BD
:02147500AB07C3
:10147700EB54F0FFE4C4F854F0C868FEEFC4540F0F
:1014870048FF7C007D0A1208A4EB540F2FFFEC3EA7
:01149700FE56
:011498002231
:0413A200AB07AA06E5
:1013A6007C007D0A1208B6EFC4F8540FC868FFEE39
:1013B600C454F0488F82F583AE02AF037C007D0AE9
:0B13C6001208B6E5834CFEE5824DFFE7
:0113D10022F9
:080F29008E558F568C578D5830
:100F3100855C60855B5F855A5E85595DC3E5589424
:100F410003E5579400E450047B018001FBFAF9F8B2
:100F5100C3E5609BF560E55F9AF55FE55E99F55E37
:100F6100E55D98F55DE47B04FAF9F8AF60AE5FAD3D
:100F71005EAC5D120947EF2560FFEE355FFEED3592
:100F81005EFDEC355DFCC004C005C006C007E47B16
:100F910064FAF9F8AF60AE5FAD5EAC5D120947A8C7
:100FA10004A905AA06AB07D007D006D005D004C313
:100FB100EF9BFFEE9AFEED99FDEC98FCC004C00595
:100FC100C006C007E47B907A01F9F8AF60AE5FAD6F
:100FD1005EAC5D120947D003D002D001D000EF2BE7
:100FE100FFEE3AFEED39FDEC38FCC004A905AA0676
:100FF100AB07E55825E02420F8E6FE08E6FFEE33CE
:1010010095E0FDFCD000EB2FFBEA3EFAE93DF9E863
:101011003CF8E4FCFDEB2556FFEA3555FEED39FDC4
:10102100EC38FCE47B07FAF9F8120947AE02AF038A
:01103100229C
:081135008B508A5189528D5341
:10113D00E94A4B600BD3E553941274809480400EB2
:10114D007BFF7A0C79611200037E007F0322E4FF9E
:10115D00EFC395535013AB50AA51A9528F8275838B
:10116D0000E5541208820F80E7AB50AA51A9528FA7
:0B117D0082758300E4120882E4FEFF8C
:011188002244
:041499007F647E00EE
:10149D00E4FDFCC3ED9FEC9E5015E4FBFA0BBB0085
:0F14AD00010AEB64704A70F50DBD00010C80E47C
:0114BC00220D
:1014BD00D2AC759850758920758DFDD28E7F041232
:0914CD0012597F017E0002149DFA
:101259008F4FE54F14601614601014602F1460044A
:101269002404702B431D02431D20431D087B007A73
:10127900007908E4F5547D12121135E4F51A531D6D
:10128900EFF51B531DFBE54F64047003431D012259
:1014D600E51D30E00D8F99531DFE3099FDC29943ED
:0314E6001D0122C3
:060003008B558A56895757
:10000900E4FEAB55AA56A9578E827583001208558E
:09001900FF60061214D60E80E906
:0100220022BB
:030023000211893E
:10118900C0E0C0F0C083C082C0D075D000C000C02C
:1011990001C002C003C004C005C006C007309905DC
:1011A900C299431D0130980B531DFD85991B1210DF
:1011B900BEC298D007D006D005D004D003D002D043
:0E11C90001D000D0D0D082D083D0F0D0E03260
:101299008B708A718972E94A4B6008E57545744516
:1012A9007370057E007F02227B007A007908C003F3
:1012B900C002C001AB70AA71A9721209EA75730064
:0A12C90075740075751AE4FEFF222B
:1010BE00531DF7E51A2401FFE433FEC3EF9412EE3D
:1010CE0064809480505A531DEFE51B24F360222454
:1010DE00057034D3E51A9400748094804045E51D64
:1010EE0030E505AF1B1214D6AF1A151A74082F80EF
:1010FE0011E51D30E505AF1B1214D6431D0474080F
:10110E00251AF8E4F6801CE51D30E505AF1B121418
:10111E00D6531DFBAF1A051A74082FF8A61B8003B1
:07112E00431D10431D0222C6
:10103E00020E13E493A3F8E493A34003F68001F2A7
:10104E0008DFF48029E493A3F85407240CC8C333B3
:10105E00C4540F4420C8834004F456800146F6DF82
:10106E00E4800B01020408102040809012D3E47E2D
:10107E00019360BCA3FF543F30E509541FFEE49377
:10108E00A360010ECF54C025E060A840B8E493A33E
:10109E00FAE493A3F8E493A3C8C582C8CAC583CA69
:1010AE00F0A3C8C582C8CAC583CADFE9DEE780BE21
:01130B0000E1
:10085500BB010CE58229F582E5833AF583E0225058
:1008650006E92582F8E622BBFE06E92582F8E222A2
:0D087500E58229F582E5833AF583E49322BC
:10088200F8BB010DE58229F582E5833AF583E8F0AC
:10089200225006E92582C8F622BBFE05E92582C858
:0208A200F22240
:1008A400EF8DF0A4A8F0CF8CF0A428CE8DF0A42E68
:0208B400FE2222
:1008B600BC000BBE0029EF8DF084FFADF022E4CC26
:1008C600F875F008EF2FFFEE33FEEC33FCEE9DECEF
:1008D600984005FCEE9DFE0FD5F0E9E4CEFD22ED35
:1008E600F8F5F0EE8420D21CFEADF075F008EF2F7F
:1008F600FFED33FD4007985006D5F0F222C398FD70
:050906000FD5F0EA220C
:10090B0075F008758200EF2FFFEE33FECD33CDCCA3
:10091B0033CCC58233C5829BED9AEC99E582984026
:10092B000CF582EE9BFEED9AFDEC99FC0FD5F0D603
:10093B00E4CEFBE4CDFAE4CCF9A88222B800C1B92D
:10094B000059BA002DEC8BF084CFCECDFCE5F0CB6B
:10095B00F97818EF2FFFEE33FEED33FDEC33FCEBA4
:10096B0033FB10D703994004EB99FB0FD8E5E4F95F
:10097B00FA227818EF2FFFEE33FEED33FDEC33FC4C
:10098B00C933C910D7059BE99A4007EC9BFCE99A40
:10099B00F90FD8E0E4C9FAE4CCFB2275F010EF2F85
:1009AB00FFEE33FEED33FDCC33CCC833C810D70785
:1009BB009BEC9AE899400AED9BFDEC9AFCE899F8C0
:0E09CB000FD5F0DAE4CDFBE4CCFAE4C8F92253
:1009D900EB9FF5F0EA9E42F0E99D42F0E89C45F074
:0109E90022EB
:1009EA00BB011A89828A83D0F0D0E0F8D0E0F9D02E
:1009FA00E0FAD0E0FBE8C0E0C0F0020A7D5016E958
:100A0A00F8D083D082D0E0F9D0E0FAD0E0FBC082FF
:100A1A00C083020A74BBFE16E9F8D083D082D0E004
:0F0A2A00F9D0E0FAD0E0FBC082C083020A862236
:1004F900E56B245FF8E6056B22785C300702785FCC
:10050900E475F001120A64020A392000EB7F2ED249
:10051900008018EF540F2490D43440D4FF30040BDA
:10052900EF24BFB41A0050032461FFE56C60021583
:100539006C056FE56F7002056E30070D785CE47528
:10054900F001120A64EF020A520214297403D20755
:100559008003E4C207F56B8B5C8A5D895EE4F56C08
:10056900F56EF56FE56C60077F2012053480F5752F
:100579006DFFC201C200C202C203C205C206C2089F
:10058900120502FF700D3007057F00120545AF6F98
:10059900AE6E22B4255FC2D5C204120502FF24D073
:1005A900B40A00501A75F00A786C30D50508B6FF00
:1005B9000106C6A426F620D5047002D20380D924E8
:1005C900CFB41A00EF5004C2E5D204020745D201A4
:1005D90080C6D20080C0D20280BCD2D580BAD205F2
:1005E90080B47F201205342002077401B56C0040E5
:1005F900F11204F9FF12053402056DD208D2068002
:10060900951204F9FB1204F9FA1204F9F94A4B702C
:100619000679167A087BFF20022EE56C602A7E0097
:100629008E8275830012085560060EEE656D70F0B6
:10063900C2D5EBC0E0EAC0E0E9C0E0EE12078CD019
:10064900E0F9D0E0FAD0E0FB120A39FF60AAEBC06A
:10065900E0EAC0E0E9C0E0120534D0E02401F9D0B5
:10066900E03400FAD0E0FBE56D0460DCD56DD9809B
:10067900877BFF7A077988D202809C79108002797A
:1006890008C206C2088008D2D5790A8004790AC24C
:10069900D5E56D047002F56DE4FAFDFEFF1204F96B
:1006A900FC7B082001131204F9FD7B1030000A12AB
:1006B90004F9FE1204F9FF7B20EC3382D592D55060
:1006C90013C3E43000069FFFE49EFEE42001039D6E
:1006D900FDE49CFCE4CBF8C201EC700CCFCECDCC90
:1006E900E824F8F870F38017C3EF33FFEE33FEED1B
:1006F90033FDEC33FCEB33FB994002FB0FD8E9EBFC
:10070900300105F8D0E0C448B201C0E00AEC4D4E12
:100719004F78207B0070C2EAB56D0040BCC0E01282
:10072900078ED0F0D0E0200104C4C0E0C4B201C0FB
:10073900F012051DD0F0D5F0EB02056D120A8F06F7
:100749000A5306845805DB4C05D74206884F0690A4
:0F0759004406904905F043069655067A46067AFF
:1007680045067A4708365005DF2D05E32E06062B89
:1007780005E723060420081F2A059F48000005FEF8
:100788003F3F3F00790AA2D5200314300509B9106C
:10079800020404B9080104A2D5200602500104206D
:1007A80002689202B56C005034C0E07F2030031913
:1007B8007F30A20272067205500F1207E5C202C20C
:1007C80006C205C2087F30800F300503E9C0E01279
:1007D8000534300503D0E0F9D0E0B56CCC3005170E
:1007E8007F30B9100C1205347F583004077F7880A9
:1007F80003B908031205343002057F2D0205347F42
:10080800202008F87F2B2006F322920280CF286E42
:10081800756C6C2900D2011204F93001F8C2017814
:100828006C30D50108F602059F2D50434958120433
:10083800F92403B405004001E4900831931205251A
:0D084800743A120525D203756C0402068473
:100A3900BB010689828A83E0225002E722BBFE02BB
:090A4900E32289828A83E49322EE
:100A5200BB010689828A83F0225002F722BBFE0183
:020A6200F3227D
:100A6400FAE6FB0808E6F925F0F618E6CA3AF62293
:090A7400EBF608EAF608E9F622A7
:090A7D00EBF0A3EAF0A3E9F0227A
:090A8600EBF208EAF208E9F222A1
:100A8F00D083D082F8E4937012740193700DA3A3F6
:100A9F0093F8740193F5828883E47374029368600A
:060AAF00EFA3A3A380DF0A
:10142900EFB40A07740D121434740A309811A8998C
:10143900B8130CC2983098FDA899C298B811F63023
:0714490099FDC299F59922FB
:00000001FF
